:100000000C9489000C949E000C949E000C949E000D
:100010000C949E000C949E000C949E000C949E00E8
:100020000C949E000C949E000C949E000C949E00D8
:100030000C949E000C949E000C949E000C949E00C8
:100040000C949E000C949E000C949E000C949E00B8
:100050000C949E000C949E000C949E000C949E00A8
:100060000C949E000C94AC000C949E000C94A00088
:100070000C949E000C949E000C949E000C949E0088
:100080000C949E000C949E000C949E000C949E0078
:100090000C949E000C949E000C949E000C949E0068
:1000A0000C949E000C949E000C949E00CB00CE00FD
:1000B000E200E200E200E200E200E200E200E20030
:1000C000E200E200E200E200E200E200E200DA0028
:1000D000DD00E200E200E200E200E200E200E20015
:1000E000E200E200E200E200E200E200CB00D40025
:1000F000E200E200E200E200E200E200E200E200F0
:10010000E200E200E200E200E200E200E200DA00E7
:10011000DD0011241FBECFEFDAE0DEBFCDBF14E05B
:10012000A0E0B1E0EAECF4E002C005900D92A83046
:10013000B107D9F70E94FC000C9463020C940000F4
:100140001F920F920FB60F921124F89478940F908B
:100150000FBE0F901F9018951F920F920FB60F921F
:1001600011242F933F934F935F936F937F938F93BC
:100170009F93AF93BF93EF93FF93F8948091CE003A
:1001800090E0FC01E154F109E333F105D8F4EA5AB7
:10019000FF4F0C945D020E94950114C061E085E25E
:1001A00090E00E944A020EC061E083E290E00E946B
:1001B0004A0208C00E94290105C06AE080EA93E073
:1001C0000E94D9017894FF91EF91BF91AF919F91D7
:1001D0008F917F916F915F914F913F912F910F90F0
:1001E0000FBE0F901F901895E1E6F0E080E8808345
:1001F000108285BF85BF08950E94F4000E942202EC
:100200000E94040260E18BEA93E00E944A020E948D
:10021000BB0178946EE08CEB93E00E944A021C993B
:10022000FECF0E942901FBCF1C99FECF08951F939A
:10023000CF93DF93EC0118811F5F28980E9414016F
:10024000612FCE010E940D02289ADF91CF911F915C
:1002500008951F93CF93DF9300D0CDB7DEB71982F7
:100260001A8228980E9414010E941C020E941C02FB
:100270008A8361E0CE0102960E9434028A8188233B
:1002800069F010E00E941C02898361E0CE010196B2
:100290000E9434021F5F8A811817A0F360E08BEB85
:1002A00093E00E944A02289A0F900F90DF91CF911D
:1002B0001F910895EF92FF920F931F93CF93DF93B7
:1002C000CDB7DEB7C05AD2400FB6F894DEBF0FBE2E
:1002D000CDBF80EA92E0E0E0F1E0DE01119601900E
:1002E0000D920197E1F78E010F5F1F4F7E018FE5A1
:1002F000E81A8DEFF80AC8010E9417010E94140144
:100300000E942901005E1F4F0E151F05A1F7C05660
:10031000DD4F0FB6F894DEBF0FBECDBFDF91CF919A
:100320001F910F91FF90EF900895CF93DF9300D02E
:1003300000D000D0CDB7DEB769E08BEC93E00E942F
:100340004A0285E089838FE08A831B821C8284E6CF
:100350008D831E82CE0101960E9417010E94140116
:100360000E94290126960FB6F894DEBF0FBECDBFBE
:10037000DF91CF9108950E94140162E185ED93E031
:100380000E944A020E9414010E9429016FE088EE37
:1003900093E00E944A020E945A016EE088EF93E0C7
:1003A0000E944A020E9414010E9429010E949501A4
:1003B0000895FF920F931F93CF93DF9300D01F9266
:1003C000CDB7DEB78C01F62E84E18617A0F082E06F
:1003D000860F898385E18A8383E08B8328980E9436
:1003E000140163E0CE0101960E940D026F2DC80139
:1003F0000E940D02289A0F900F900F90DF91CF91DD
:100400001F910F91FF90089587E284B985B18162B1
:1004100085B92C9A81E78CBD0895662361F0282F59
:10042000E82FF92F81918EBD0DB407FEFDCF8E2FE1
:10043000821B8617B8F308951EBC0DB407FEFDCFCE
:100440008EB50895E8ECF0E0108282E0808388EDBC
:100450008093C90086E08093CA008FEC90E090936F
:10046000CD008093CC000895CF93DF93662379F07D
:10047000A82FB92FE8ECF0E0CEECD0E0908195FF0A
:10048000FDCF9D9198839A2F981B9617B8F3DF9113
:10049000CF9108950E943402E8ECF0E0808185FF5E
:1004A000FDCF8DE08093CE00E8ECF0E0808185FF09
:1004B000FDCF8AE08093CE000895EE0FFF1F0590D8
:0A04C000F491E02D0994F894FFCFA9
:1004CA0007060000030241D70000000000000000F8
:1004DA000000000000000000000000000000000012
:1004EA001F061000000000000000040004010100C3
:1004FA00000600009000000000000000000000005C
:10050A001F06101C0102000000000000000000008D
:10051A0000000000000000140000001403900164B1
:10052A001F06103802FF02580005000000000000F4
:10053A0000000000001000000000000000000000A1
:10054A000506105400000000000000000000000032
:10055A000000000000000000000000000000000091
:10056A001F062000040402020001280001001804EA
:10057A0004050500022803010E0300002A041407DB
:10058A001F06201C0400032A0001554152546963C6
:10059A0073040405050004280301020500012A0664
:1005AA001F06203804030200052A01010000040482
:1005BA0005050006280301020700042A06040908A3
:1005CA001F06205400072A04010600120000000A30
:1005DA000004040202000828000101180404101093
:1005EA001F06207000092800019ECADC240EE5A916
:1005FA00E093F3A3B50100406E04041313000A2824
:10060A001F06208C0301040B009ECADC240EE5A9F8
:10061A00E093F3A3B50200406E44101400000B00EF
:10062A001F0620A8020200000000000000000000CF
:10063A000000000000000000000004041313000C76
:10064A001F0620C4280301100D009ECADC240EE5F3
:10065A00A9E093F3A3B50300406E14001400000D43
:10066A001F0620E000030200000000000000000056
:10067A000000000000000000000000461403020011
:10068A001F0620FC0E290201000004040202000FCA
:10069A002800010A180404050500102803010211A4
:1006AA001906211800272A0404090100112A270122
:1006BA000A00000000000000000000000000000026
:1006CA001F0640002A000100800400030000000207
:1006DA0002000804000B0000000302000204000DDF
:1006EA000F06401C000E2A2701008004001100009A
:1006FA0000000000000000000000000000000000F0
:10070A00130650009ECADC240EE5A9E093F3A3B5B4
:10071A000000406E00000000000000000000000021
:10072A000F0660000000000000000000000000004A
:10073A0000000000000000000000000000000000AF
:10074A000606F00003D38800000000000000000045
:10075A00000000000000000000000000000000008F
:10076A0041206D657373616765210050726F67720E
:10077A00616D20737461727465642100456E7465DD
:10078A0072696E67206D61696E21005374617274BB
:10079A002061647600446576696365537461727496
:1007AA0065644576656E740053657475704461744A
:1007BA006120737461727400536574757044617456
:0807CA00612073656E740000EC
:00000001FF
