S00F00006E7266383030312E7372656306
S11300000C9456000C946B000C946B000C946B00D5
S11300100C946B000C946B000C946B000C946B00B0
S11300200C946B000C946B000C946B000C946B00A0
S11300300C946B000C946B000C946B000C946B0090
S11300400C946B000C946B000C946B000C946B0080
S11300500C946B000C946B000C946B000C946B0070
S11300600C946B000C9479000C946B000C946D0050
S11300700C946B000C946B000C946B000C946B0050
S11300800C946B000C946B000C946B000C946B0040
S11300900C946B000C946B000C946B000C946B0030
S11300A00C946B000C946B000C946B0011241FBE19
S11300B0CFEFDAE0DEBFCDBF13E0A0E0B1E0ECEFBC
S11300C0F3E002C005900D92AC3FB107D9F70E944E
S11300D0C6000C94FC010C9400001F920F920FB602
S11300E00F921124F89478940F900FBE0F901F90E4
S11300F018951F920F920FB60F9211242F933F93CE
S11301004F935F936F937F938F939F93AF93BF931B
S1130110EF93FF93F8948091CE008235D9F028F4C0
S1130120813449F0823451F017C0823669F0823745
S113013089F0813689F40E945F010EC061E085E296
S113014090E00E94E90108C061E083E290E00E942F
S1130150E90102C00E94F3007894FF91EF91BF91EE
S1130160AF919F918F917F916F915F914F913F914B
S11301702F910F900FBE0F901F901895E1E6F0E0BD
S113018080E88083108285BF85BF08950E94BE00E9
S11301900E94C1010E94A30160E180EA93E00E94F1
S11301A0E9010E94850178946EE081EB93E00E945E
S11301B0E9011C99FECF0E94F300FBCF1C99FECFEE
S11301C008951F93CF93DF93EC0118811F5F289844
S11301D00E94DE00612FCE010E94AC01289ADF91BB
S11301E0CF911F9108951F93CF93DF9300D0CDB784
S11301F0DEB719821A8228980E94DE000E94BB0191
S11302000E94BB018A8361E0CE0102960E94D30161
S11302108A81882369F010E00E94BB01898361E030
S1130220CE0101960E94D3011F5F8A811817A0F3A3
S113023060E080EB93E00E94E901289A0F900F9010
S1130240DF91CF911F910895EF92FF920F931F9327
S1130250CF93DF93CDB7DEB7C05AD2400FB6F89430
S1130260DEBF0FBECDBF80EA92E0E0E0F1E0DE0148
S1130270119601900D920197E1F78E010F5F1F4FC8
S11302807E018FE5E81A8DEFF80AC8010E94E100AB
S11302900E94DE000E94F300005E1F4F0E151F0532
S11302A0A1F7C056DD4F0FB6F894DEBF0FBECDBF29
S11302B0DF91CF911F910F91FF90EF900895CF930D
S11302C0DF9300D000D000D0CDB7DEB769E080EC7A
S11302D093E00E94E90185E089838FE08A831B8291
S11302E01C8284E68D831E82CE0101960E94E10069
S11302F00E94DE000E94F30026960FB6F894DEBF3B
S11303000FBECDBFDF91CF9108950E94DE0062E160
S11303108AEC93E00E94E9010E94DE000E94F3004F
S11303206FE08DED93E00E94E9010E9424016EE0EC
S11303308DEE93E00E94E9010E94DE000E94F3002A
S11303400E945F01089587E284B985B1816285B90D
S11303502C9A81E78CBD0895662361F0282FE82F3D
S1130360F92F81918EBD0DB407FEFDCF8E2F821B18
S11303708617B8F308951EBC0DB407FEFDCF8EB5E5
S11303800895E8ECF0E0108282E0808388ED8093A9
S1130390C90086E08093CA008FEC90E09093CD0072
S11303A08093CC000895CF93DF93662379F0A82F30
S11303B0B92FE8ECF0E0CEECD0E0908195FFFDCFD2
S11303C09D9198839A2F981B9617B8F3DF91CF913C
S11303D008950E94D301E8ECF0E0808185FFFDCF11
S11303E08DE08093CE00E8ECF0E0808185FFFDCFC6
S10F03F08AE08093CE000895F894FFCFBB
S11303FC07060000030241D70000000000000000C3
S113040C00000000000000000000000000000000DC
S113041C1F0610000000000000000400040101008D
S113042C0006000090000000000000000000000026
S113043C1F06101C01020000000000000000000058
S113044C000000000000001400000014039001647C
S113045C1F06103802FF02580005000000000000BF
S113046C000000000010000000000000000000006C
S113047C05061054000000000000000000000000FD
S113048C000000000000000000000000000000005C
S113049C1F062000040402020001280001001804B5
S11304AC04050500022803010E0300002A041407A6
S11304BC1F06201C0400032A000155415254696391
S11304CC73040405050004280301020500012A062F
S11304DC1F06203804030200052A0101000004044D
S11304EC05050006280301020700042A060409086E
S11304FC1F06205400072A04010600120000000AFB
S113050C000404020200082800010118040410105D
S113051C1F06207000092800019ECADC240EE5A9E0
S113052CE093F3A3B50100406E04041313000A28EE
S113053C1F06208C0301040B009ECADC240EE5A9C3
S113054CE093F3A3B50200406E44101400000B00BA
S113055C1F0620A80202000000000000000000009A
S113056C0000000000000000000004041313000C41
S113057C1F0620C4280301100D009ECADC240EE5BE
S113058CA9E093F3A3B50300406E14001400000D0E
S113059C1F0620E000030200000000000000000021
S11305AC00000000000000000000004614030200DC
S11305BC1F0620FC0E290201000004040202000F95
S11305CC2800010A1804040505001028030102116F
S11305DC1906211800272A0404090100112A2701ED
S11305EC0A000000000000000000000000000000F1
S11305FC1F0640002A0001008004000300000002D2
S113060C02000804000B0000000302000204000DA9
S113061C0F06401C000E2A27010080040011000064
S113062C00000000000000000000000000000000BA
S113063C130650009ECADC240EE5A9E093F3A3B57F
S113064C0000406E000000000000000000000000EC
S113065C0F06600000000000000000000000000015
S113066C000000000000000000000000000000007A
S113067C0606F00003D38800000000000000000010
S113068C000000000000000000000000000000005A
S113069C50726F6772616D2073746172746564213A
S11306AC00456E746572696E67206D61696E210018
S11306BC5374617274206164760044657669636571
S11306CC537461727465644576656E740053657415
S11306DC7570446174612073746172740053657431
S10F06EC7570446174612073656E7400C5
S9030000FC
